:020000040800F2
:10000000900700204D020008BF260008BB2600080C
:10001000BD260008AF150008CD2A0008000000002A
:10002000000000000000000000000000C3260008DF
:100030003916000800000000C1260008C526000887
:1000400067020008670200086702000867020008EC
:1000500067020008670200083D16000867020008F2
:1000600067020008670200086702000867020008CC
:1000700067020008670200086702000867020008BC
:10008000B11500086702000867020008670200084F
:10009000670200086702000867020008670200089C
:1000A000670200086702000867020008670200088C
:1000B00067020008BD270008412800086702000801
:1000C000670200086702000867020008670200086C
:1000D0006702000867020008C12A000867020008DA
:1000E000670200086702000867020008670200084C
:1000F000670200086702000867020008670200083C
:10010000670200086702000867020008670200082B
:10011000670200086702000867020008670200081B
:10012000670200086702000867020008670200080B
:1001300067020008670200086702000867020008FB
:1001400067020008670200086702000867020008EB
:1001500067020008670200086702000867020008DB
:1001600067020008670200086702000867020008CB
:10017000670200086702000867020008000000002C
:10018000670200086702000800F002F800F04FF86C
:100190000AA090E8000C82448344AAF10107DA45E2
:1001A00001D100F044F8AFF2090EBAE80F0013F0E5
:1001B000010F18BFFB1A43F001031847DC3400009D
:1001C000FC340000103A24BF78C878C1FAD852072E
:1001D00024BF30C830C144BF04680C6070470000C1
:1001E0000023002400250026103A28BF78C1FBD840
:1001F000520728BF30C148BF0B607047662903F023
:10020000CC81642900F0C680752900F0C3800020ED
:1002100070471FB503F0BCF900F070FC040000202B
:10022000002102F09FFDE0601FBD10B510BD00F081
:1002300081FD1146FFF7EDFF02F030FD00F09FFD5C
:1002400003B4FFF7F2FF03BC00F0E2FD094880476A
:1002500009480047FEE7FEE7FEE7FEE7FEE7FEE7A8
:10026000FEE7FEE7FEE7FEE704480549054A064BC0
:10027000704700005D2700088901000890010020F8
:1002800090070020900300209003002053EA020C06
:1002900000F069802DE9F04B4FF00006002B1FBFE6
:1002A000B3FA83F503FA05F424FA05F65E4012BFAB
:1002B0001643B2FA82F502FA05F4C5F120051EBF15
:1002C00022FA05FC44EA0C04203556EA044C4FEAB5
:1002D000144418BF641C4FF000084FF0000990420E
:1002E00071EB030C39D3002919BFB1FA81F701FA78
:1002F00007F6B0FA80F700FA07F6C7F120071EBF2D
:1003000020FA07FC46EA0C062037B6FBF4FCA7EB04
:100310000507103F07F01F0BCBF120060CFA0BFB73
:100320002CFA06F644BFB3460026202FA4BF5E4633
:100330004FF0000B5BEA060C08BF4FF0010B19EB06
:100340000B09ABFB027C48EB0608C01B06FB02CC8A
:100350000BFB03CC71EB0C01C1E70B460246414697
:100360004846BDE8F08B13B54FF000004FF0000198
:10037000AFF30080BDE81C40704700000FB4044993
:1003800010B503AA029800F075FB10BC5DF814FBD1
:100390002C0000202DE9F041064600241068752944
:1003A000314616A510D0AFF30080002802DA404293
:1003B00013A507E031688A0701D512A502E04907B5
:1003C00004D511A5012401E0AFF3008000210A2229
:1003D00006F1240709E0B0FBF2FCB0FBF2F302FBEC
:1003E0001C00303078541846491C0028F3D12346AD
:1003F0002A463046BDE8F04100F0D3B800000000C6
:100400002D0000002B000000200000002DE9F0412D
:100410000F460546002028622846E968884770B3E1
:10042000252805D0D5E901219047286A401CF2E72C
:10043000E9682846002688476C2804460AD0682CBC
:1004400008D04C2C35D06A2C31D0742C31D07A2C79
:100450002FD016E0E968064628468847B042044691
:1004600008D16C2E23D04FF480662846E96888476F
:10047000044606E06C2E03D04FF4807601E01EE0C7
:100480004026E4B1A4F14100192802D8203446F4F2
:1004900000663A46214628462E60FFF7AFFE60B15F
:1004A000012808D0FF1D27F007070837B4E780268A
:1004B000DBE70026D9E73F1DAEE72046B2E7286A12
:1004C000BDE8F081032A40F2308010F0030C00F008
:1004D000158011F8013BBCF1020F624498BF11F87E
:1004E00001CB00F8013B38BF11F8013BA2F1040237
:1004F00098BF00F801CB38BF00F8013B11F00303AF
:1005000000F0CA82083AC0F0088051F8043B083A6B
:1005100051F804CBA0E80810F5E7121D5CBF51F8B4
:10052000043B40F8043BAFF30080D20724BF11F82E
:10053000013B11F801CB48BF11F8012B24BF00F893
:10054000013B00F801CB48BF00F8012B70474FF08A
:10055000000200B5134694469646203922BFA0E813
:100560000C50A0E80C50B1F12001BFF4F7AF09071F
:1005700028BFA0E80C5048BF0CC05DF804EB890010
:1005800028BF40F8042B08BF704748BF20F8022B53
:1005900011F0804F18BF00F8012B7047704770476B
:1005A00070472DE9F0470D4699469246044600F102
:1005B00024080168880604D5E06921F01001216053
:1005C00000E00120A84201DD471B00E00027A169EF
:1005D0007A1902EB0900081AA0612078C00602D43B
:1005E0002046AFF30080002608E0D4E901211AF884
:1005F00006009047206A401C761C20624E45F4DBC2
:100600002078C0060AD52046AFF3008006E0D4E982
:10061000012130209047206A401C2062381EA7F13B
:100620000107F4DC07E0D4E9012118F80500904740
:10063000206A401C2062281EA5F10105F3DC20463B
:10064000AFF300802078000602D50220BDE8F087D5
:100650000120FBE770472DE9FF4F0C461E464FF087
:10066000FF378BB0D2E90001DDF860800A908A463E
:10067000C1F30A5505B93D46002108464FF0000078
:10068000BAF1000F00F4400005DA00EB80004FF4EF
:10069000400101EA50004FEA9059B9F1010F00DD25
:1006A000B9460A9850EA4A000ED044F61050A5F216
:1006B000FF3545432F14B8F1000F1ED07542291E97
:1006C0001EDDC9F100021CE0B8F1010F4FF000007F
:1006D00001D0302103E0F24305E02154401CB04238
:1006E000FBDB30460022002121540B99C1F8088021
:1006F000C1E900200FB0BDE8F08FBD1B6D1CDEE727
:100700004A4600DA694206A800F09AFA06AB93E876
:10071000070003AB83E8070050460A9900F07FFB0F
:100720008DE80700A0F500501F3800900398002DB9
:100730000ADD42F21F014A460844002303A9039040
:10074000684600F0E8FD09E0A0F500504A461F3871
:10075000002303A90390684600F0F2FD8DE807002E
:100760000004000C03D04FF0FF30410800E01046B9
:10077000B8F1000F03D00022009215461EE0751E4E
:1007800005D400F0BFF9303262556D1EF9D5B3467D
:100790000122084302D000227F1C04E02078302888
:1007A00001D100227F1E002A099784D01DE0112D5F
:1007B00007DA00F0A7F9303262556D1C50EA0102E9
:1007C000F5D1084302D00098C8B10EE00021681EA0
:1007D00005E0235C625C63542254401E491C814244
:1007E000F7DBAB46A81B401E0990002004F80B0065
:1007F0000B98099AC0F80880C0E9002B7AE7112607
:100800004FF0000857E72DE9F04F88460446D21D07
:1008100022F0070191B0D1E90001CDE90A0102F00F
:1008200056F902460B98C00F01D02D2007E0206832
:10083000810701D52B2002E0202101EAC000032A14
:10084000099001D0072A05DB03464146204600F007
:10085000B7F90BE12078800601D5E06900E00620B9
:10086000B8F1650F814606D0B8F1660F18D0B8F11F
:10087000670F70D131E00020B9F1110F009001DB5A
:10088000112301E009F101030AAA01A90CA8FFF74D
:10089000E2FEDDE90C70002609F10105834647E020
:1008A00001204B4600904FF000470AAA01A90CA86E
:1008B000FFF7D1FEDDE90DB00C995D46002610B9B9
:1008C00009F101000D18B9EB050003D4C0F1FF36A2
:1008D00009F10105A5EB09002BE0B9F1010F01DADF
:1008E0004FF001090020B9F1110F0090484601DDD9
:1008F000112300E003460AAA01A90CA8FFF7ABFEEA
:10090000DDE90C704D4600268346207800070AD4A6
:10091000AB4500DA5D4601A8012D04DD411911F84F
:10092000011C302907D04F4502DA17F1040F04DA11
:10093000012082460FE06D1EEEE7002F02DCED1B6A
:100940003E4403E0781CA84200DD7D1CB81B00F18A
:10095000010A4FF000472078000703D4AA4501DBC5
:100960004FF0FF3A0021B7F1004F0DF143088DF829
:10097000431024D002202B23002F01DA7F422D23A5
:100980000A21021EA0F1010000DC5FB197FBF1FC1F
:1009900097FBF1F201FB1C7C17460CF1300C08F8B8
:1009A00001CDEEE7A8F1010003702188090501D50A
:1009B000452100E06521A0F1010800F8011C09981B
:1009C0000FA9A1EB0807FF1D00B10120411901EBA0
:1009D000EA70A1693844081A401EA0612078C00658
:1009E00002D42046AFF30080099828B1D4E9012150
:1009F0009047206A401C20622078C00622D52046FD
:100A0000AFF300801EE0002E04DBB34502DD01A839
:100A1000805D00E03020D4E901219047206A401C2D
:100A20002062761CAAF101005FEA000A0AD100F0F8
:100A300065F8C0680168405CD4E901219047206AEC
:100A4000401C2062281EA5F10105DCDC07E0D4E98A
:100A5000012118F8010B9047206A401C2062381EC3
:100A6000A7F10107F3DC2046AFF30080032011B0AB
:100A700041E60000074B70B50D467B4400F08DF851
:100A80000446284600F04EF910B14FF0FF3070BD1B
:100A9000204670BDBB20000010B5203AC0F00B808E
:100AA000B1E81850203AA0E81850B1E81850A0E872
:100AB0001850BFF4F5AF5FEA027C24BFB1E81850CC
:100AC000A0E8185044BF18C918C0BDE810405FEA3C
:100AD000827C24BF51F8043B40F8043B08BF7047B8
:100AE000D20728BF31F8023B48BF11F8012B28BFBD
:100AF00020F8023B48BF00F8012B704700487047C0
:100B00005001002030B5B0F10A024FEA900E71F1A9
:100B100000034EEA817EB0EB0E0061EB91014FEADB
:100B2000101E4EEA017E10EB0E0041EB11114FEA50
:100B3000102E4EEA016E10EB0E0041EB11214FEA30
:100B4000104E4EEA014E10EB0E0041EB11414018E1
:100B500041F100014FEAD00040EA41704FEAD10173
:100B600010EB80054FEA810444EA907444EB0104E1
:100B70006D1944EB0404521BA3414FF0000348BF1E
:100B80000A3200D530BD401C41F1000130BD0000EB
:100B900001694A1C02610878704700B58FB0CDE941
:100BA00001310021059105497944CDE90310114631
:100BB0006846FFF72BFC0FB000BD0000E5FFFFFF0C
:100BC0002DE9F0411F46044603260168072A01F477
:100BD000006004DB08B116A505E016A503E008B126
:100BE00015A500E015A521F010002060A069C01E29
:100BF000A0610FB1401EA0612046AFF300804FB14D
:100C0000D4E9012138469047206A401C2062C01C6C
:100C1000206206E0206AFAE7D4E9012115F8010B09
:100C20009047761EF8D22046AFF30080BDE8F081F1
:100C30004E414E006E616E00494E4600696E660080
:100C40002DE9F047814616468AB0354878440DC8EC
:100C50008DE80D0032487844801C03AC0DC884E850
:100C60000D0041F69B300844372190FBF1F290FBD8
:100C7000F1F5A5F1800501FB12041B3C02D564428D
:100C8000012000E00020DFF898A080460027FA4409
:100C9000AAF1BE0A0EE0E0070AD03246684607EB2A
:100CA000470101230AEB810100F04AFB8DE80700B0
:100CB00064107F1C002CEED1194F7F44AE3F19E029
:100CC000E80715D007EB04100DF1180A90E80E00A4
:100CD0008AE80E00C068F04201D1981908903246A7
:100CE000012306A903A800F02BFB03AB83E8070050
:100CF0006D10641C002DE3D14FF0010332466946AC
:100D0000B8F1000F03A802D000F005FB01E000F0ED
:100D100017FBC9E90001C9F808200AB0BDE8F0874F
:100D2000EC290000007B00F080007047004870470D
:100D3000300100207546FFF7F9FFAE460500694611
:100D4000534620F00700854618B020B5FFF78CFA0F
:100D5000BDE820404FF000064FF000074FF00008BC
:100D60004FF0000B21F00701AC46ACE8C009ACE83D
:100D7000C009ACE8C009ACE8C0098D46704710B5A1
:100D80000446AFF300802046BDE81040FFF758BA94
:100D90004FF0013C50F8042B51F8043B9A4221D10A
:100DA000A2EB0C03934313EACC1317D150F8042B96
:100DB00051F8043B9A4215D1A2EB0C03934313EA7A
:100DC000CC130BD150F8042B51F8043B9A4209D1B3
:100DD000A2EB0C03934313EACC13DBD04FF00000DB
:100DE000704700BFD01A01BAB1FA81F101F01801C1
:100DF00022FA01F0CB40C1F12001DBB2C0B2C01A2F
:100E00002CFA01F3D11A914311EAC311E6D17047CC
:100E100001491820ABBEFEE72600020070475FEADA
:100E2000400C08BF91F0000F4FEA8C234FEAC1221B
:100E300043EA51514FEA1C5018BF00F5F0404FEA09
:100E4000300018BF41F000415FEA6C5C00F029807F
:100E5000BCF1FF3F08BF40F080407047130C06BF55
:100E600012044FF0100C4FF0000C130E04BF1202CE
:100E70000CF1080C130F04BF12010CF1040C930FBA
:100E800004BF92000CF1020CD30F04BF52000CF10E
:100E9000010C11464FF00002A0F11F00A0EB0C0066
:100EA000704711F0004F08BF704731F000413FF428
:100EB000D5AF0B0C06BF09044FF0100C4FF0000C1F
:100EC0000B0E04BF09020CF1080C0B0F04BF090143
:100ED0000CF1040C8B0F04BF89000CF1020CCB0F3A
:100EE00004BF49000CF1010CCCF12003A0EB0C0075
:100EF00022FA03F302FA0CF241EA030100F10100C5
:100F0000704720F07F4C80EA030023F07F47ACEB72
:100F1000070303F57C5300F0004003F1FF032DE9C4
:100F200080494FEA154B09B44FEA144325EA0B4EAA
:100F300024EA03480FF2042606EB132749083E78FB
:100F40005FEA320203FB0667C7F5000707FB06F6F8
:100F50004FEA54374FEAD64606F1020607FB066C05
:100F6000CCF1005C4FEA1C472CEA074C07FB06F467
:100F70000CFB06F504EB15464FEA961634BF00202D
:100F80004FF000404FEAD13706FB07FC4FEA1C4CFC
:100F90000CFB0BF7D21B03FB0CF761EB07010CFBFF
:100FA0000EF7B0EB074072EB17420CFB08F734BFAB
:100FB000A2EB0742B2EB074261EB17414FEA0C4448
:100FC0004FEA910706FB07FC4FEA1C4C0CFB0BF7A2
:100FD000B0EBC74072EB573203FB0CF734BFA2EB08
:100FE000C742B2EBC74261EB57310CFB0EF7B0EBD7
:100FF000C70072EB57720CFB08F734BFA2EBC702B5
:10100000B2EBC70261EB5771039F4FEA816141EA7E
:10101000921104EBCC044FEAD1374FEA826206FB0F
:1010200007FC42EA90124FEA80604FEA1C4C0CFB2E
:101030000BF7D21B03FB0CF761EB07010CFB0EF760
:10104000B0EB074072EB17420CFB08F734BFA2EB82
:101050000742B2EB074261EB17414FEA8C554FEA6A
:10106000910704EB9C2406FB07FC4FEA1C4C0CFB8D
:101070000BF7B0EBC74072EB573203FB0CF734BFF2
:10108000A2EBC742B2EBC74261EB57310CFB0EF744
:10109000B0EBC70072EB57720CFB08F734BFA2EB42
:1010A000C702B2EBC70261EB577115EB4C254FEA53
:1010B000816141EA92114FEA82624FEAD13742EAF6
:1010C000901206FB07FC44F100044FEA80604FEAEF
:1010D0001C4C0CFB0BF7D21B03FB0CF761EB07015D
:1010E0000CFB0EF7B0EB074072EB17420CFB08F756
:1010F00034BFA2EB0742B2EB074261EB174115EB9D
:101100001C154FEA813141EA92414FEA823242EAAC
:1011100090424FEA80304FEA0C7644F1000448EAEE
:1011200003434EEA0B484FF0000EB2EB080C71EB94
:10113000030724BF624639464EEB0E0E4FF0000BFC
:101140000018524149414BEB0B0BB2EB080C71EB11
:1011500003077BF1000B24BF624639464EEB0E0EAF
:101160004FF0000B0018524149414BEB0B0BB2EB17
:10117000080C71EB03077BF1000B24BF6246394674
:101180004EEB0E0E51EA020718BF46F0010616EBB1
:101190000E7655F1000254F1000103D5BDE8890136
:1011A000BDE80088BDE88901BDE80048B619524194
:1011B00041EB0101A3F10103704780807F7E7D7CBC
:1011C0007B7A7978777676757473727171706F6ED9
:1011D0006E6D6C6C6B6A6A69686867666665646484
:1011E000636362616160605F5F5E5E5D5D5C5C5B0E
:1011F0005B5A5A595958585757565655555554547D
:10120000535352525251515050504F4F4F4E4E4DDA
:101210004D4D4C4C4C4B4B4B4A4A4A494949484826
:101220004847474747464646454545444444444366
:1012300043434342424242414141002B9C4630D409
:1012400077002BD01CB54FEA370703B44FF01000DE
:101250004FF01001BAF1000F06D0BCF1000FDCBF57
:1012600040F0080040F008014FF000000FBCBDE85E
:1012700010400BF1010BBBF1010F08BF5FEA17072C
:1012800022BF12F1010211F101014FF0004143F1BF
:10129000000300F0004043EA00007047F9D357080C
:1012A000D0E746EA064613F1400F4FEA16461FDD27
:1012B00013F1200FDFBF16430A46002120335B42A3
:1012C000BED0C3F1200746EA064602FA07F74FEA06
:1012D000164646EA0706C3F1200722FA03F201FA8E
:1012E00007F721FA03F14FF0000342EA0702A7E7EC
:1012F00046EA020646EA06464FEA164646EA01066E
:10130000BCBF46EA0646360C4FF000034FF0000221
:101310004FF0000194E72DE9804C9A46934670B453
:1013200091E8380007C831EA400C48BF34EA430C62
:1013300003D5FFF7E6FDFFF780FFF0BCBDE8008CAA
:101340002DE9804C9A46934670B491E8380007C85E
:1013500010F0804F08BF13F0804F03D100F005F864
:10136000FFF76BFFF0BCBDE8008C20F07F4780EA00
:10137000030023F07F4C07EB0C03A3F57C5300F034
:101380000040A3F1FE0392F0000F00F0B38095F04F
:10139000000F00F077802DE901494FEA11404FEA34
:1013A000144621EA004800FB06FC24EA064708FB35
:1013B00006F607FB08F800FB07F718EB06484CEBAE
:1013C000164C4FEA124B18EB07484FEA15464CEB08
:1013D000174022EA0B4E0BFB06FC25EA06470EFBE4
:1013E00006F607FB0EFE0BFB07F71EEB064E4CEB5B
:1013F000164C4FF000061EEB074E4CEB174B18EB4C
:101400000B0840F1000018EB0E0B58EB000840F100
:1014100000008F1A4FF000013CBFC943661B14BF88
:10142000B5EB040C00213CBFC943F61B4FEA17443F
:101430004EEA8E0E27EA04454FEA1C4704FB07627A
:101440002CEA074C05FB07F70CFB05F604FB0CFC2C
:1014500016EB074642EB174216EB0C4642EB1C42DA
:101460001BEB060658EB0202414146EA9E0601D5F7
:10147000BDE80189B619524141EB0101A3F1010315
:10148000BDE801894FEA14454FEA114724EA0546B1
:1014900021EA074C05FB07F406FB07F70CFB06F1F6
:1014A00005FB0CFC11EB074144EB17444FEA1247D4
:1014B00011EB0C4144EB1C4422EA074C05FB07F2FC
:1014C00006FB07F70CFB06F605FB0CFC16EB0746C4
:1014D00042EB174216EB0C4642EB1C456A1854F1DE
:1014E000000148BF7047B619524141EB0101A3F119
:1014F0000103704795F0000F37D04FEA11424FEAD1
:10150000144721EA024624EA074C02FB07F106FBD6
:1015100007F70CFB06F402FB0CFC14EB074441EB51
:1015200017414FEA154714EB0C4441EB1C4125EAE7
:10153000074C02FB07F506FB07F70CFB06F602FB60
:101540000CFC16EB074645EB174516EB0C4645EB36
:101550001C42121951F1000148BF7047B61952419F
:1015600041EB0101A3F1010370474FEA14454FEA33
:10157000114724EA054621EA074C05FB07F106FB63
:1015800007F70CFB06F24FF0000605FB0CFC12EB14
:10159000074241EB174112EB0C4251EB1C4148BF93
:1015A0007047921841EB0101A3F101037047FEE778
:1015B000014800F00FB90000D00000200168182396
:1015C000CAB2103AB2FBF3F2054B6FF30901032ADA
:1015D0009B5CC36500D9091D816508467047000002
:1015E0009E35000810B5014600208B698A6A4FF0CD
:1015F000C07453B1B3F5005F15D072B1012A0CD09D
:10160000022A0AD0032A09D104E01AB1012A06D01D
:10161000022A03D1C96AC90100D5012010BDC96AD7
:10162000A142FAD010BD002AF7D0012AF2D0022A36
:10163000F3D0032AF3D010BD7047000010B501F0BD
:101640006FFA12490860086801F0A2FD9FED101BB7
:1016500053EC112B01F0B4FD9FED0F1B53EC112B3C
:1016600001F03EFC0E4C94ED001B53EC112B01F0ED
:101670008FFB41EC100B0B4884ED000B0168C90790
:1016800003D0016841F00101016010BD2800002075
:101690000000000000807640000000000020AC4008
:1016A00020000020143C01401648016841F0080168
:1016B00001601548016821F00F010160016841F0E7
:1016C000050101600F481430016841F48041016058
:1016D0000E48016841F0030101600D48016841F0C6
:1016E000010101600A480C30016841F0010101600C
:1016F0000849102081F800044020891FC1F800012A
:1017000070470000303802400C0C0240083801409D
:10171000003C014006E000E072B6FEE72DE9F04132
:101720000446876D00F088FA064694F835000025D7
:10173000022806D08020606584F834500120BDE87E
:10174000F0812068016821F016010160206841697C
:1017500021F080014161206C08B9A06C20B12068A3
:10176000016821F0080101602068016821F0010191
:1017700001600CE000F060FA801B052807D92020EA
:101780006065032084F8350084F83450D7E720687A
:101790000068C007EED194F85C103F208840B86024
:1017A000012084F8350084F834500020C7E790F811
:1017B0003510022903D080214165012070470521A1
:1017C00080F835100068016821F0010101600020F7
:1017D000704700002DE9F84304464FF00009CDF8AA
:1017E000009063484FF41651A56D0068B0FBF1F707
:1017F0002E6894F85C10082000FA01F131420FD0F5
:1018000021680A6852070BD50A6822F004020A60B0
:1018100094F85C108840A860606D40F0010060653D
:1018200094F85C104FF0010808FA01F0304208D03B
:1018300021684969090604D5A860606D40F002007E
:10184000606594F85C1004208840304208D021681C
:101850000968890704D5A860606D40F004006065E0
:1018600094F85C1010208840304218D02168096834
:10187000090714D5A86020680168490304D50068E9
:10188000000308D5A16C07E00168C90503D401680D
:1018900021F008010160216C09B12046884794F8C5
:1018A0005C1020208840304231D021680968C90688
:1018B0002DD5A86094F8350005282068016806D069
:1018C000490347D5006800031DD4616C1CE021F07A
:1018D000160101602068416921F080014161206C9E
:1018E00008B9A06C20B12068016821F008010160EE
:1018F00094F85C103F208840A86084F8358084F814
:101900003490216D1FE0E16B09B120468847606D7E
:1019100000282BD0606DC00714D0052084F8350056
:101920002068016821F0010101600098401C0090CE
:10193000B84203D820680068C007F6D184F8358023
:1019400084F83490E16C002910D001B02046BDE845
:10195000F04308470168C905D5D4016821F010019A
:10196000016084F8358084F83490CCE7BDE8F883D2
:101970003C0000202DE9F041044600F05DF90646E8
:101980005CB1022084F83500002584F834502068CA
:10199000016821F0010101600DE00120BDE8F08146
:1019A00000F04AF9801B052805D920206065032036
:1019B00084F83500F2E720680068C007F0D122689B
:1019C000116820480140D4E901031843D4E90336E3
:1019D0003343184363691843A3691843E369184301
:1019E000236A18430843616A042903D1D4E90B131D
:1019F00019430843106020684069666A20F00701B7
:101A000030460E43012704280CD1A06A0643E06A41
:101A100040B12046FFF7E6FD20B14020606584F824
:101A20003570BAE7206846612046FFF7C7FD94F895
:101A30005C203F2191408160656584F8357000200D
:101A4000ACE700003F8010F02DE9F84FDFF8BCA1B3
:101A5000002201250AF1040B03264FF00F090BF1B8
:101A6000040E00BF0B6805FA02F42340A34270D1B4
:101A70000F7907F00307012F01D0022F16D18768D5
:101A80004FEA420806FA08FC27EA0C07D1F80CC016
:101A90000CFA08FC4CEA070CC0F808C04768A743DA
:101AA0000C79C4F3001494403C4344600C79E44343
:101AB000A4070AD0C4684FEA420C06FA0CF7BC43EC
:101AC0008F6807FA0CF72743C7600C7904F003040A
:101AD000022C12D1D40800EB840CDCF8204057070C
:101AE000FF0E09FA07F824EA0804D1F8108008FA72
:101AF00007F848EA0408CCF8208004684FEA420C52
:101B000006FA0CF7BC430F7907F0030707FA0CF746
:101B1000274307604C6814F4403F70D03C4C276862
:101B200047F480472760246822F0030704F48044C8
:101B30000094384C07EB040CDCF8084897074FEA90
:101B4000177809FA08F7BC43334FB84202D100278F
:101B500024E054E0314FB84201D101271EE0304F5C
:101B6000B84201D1022719E02E4FB84201D1032714
:101B700014E02D4FB84201D104270FE02B4FB8429B
:101B800001D105270AE02A4FB84201D1062705E016
:101B9000284FB84201D1072700E0082707FA08F7C5
:101BA0002743CCF80878DAF800405746D1F804C04B
:101BB0009C435FEACC3C00D51C433C60DBF8004012
:101BC0005F46D1F804C09C435FEA8C3C00D51C43BF
:101BD0003C60DEF800407746D1F804C09C435FEAE1
:101BE000CC2C00D51C433C60084F0C373C68D1F826
:101BF00004C09C435FEA8C2C00D51C433C60521C03
:101C0000102AFFF42FAFBDE8F88F0000003C014020
:101C1000443802400030014000000240000402400D
:101C200000080240000C0240001002400014024074
:101C300000180240001C0240014880687047000004
:101C400030000020024881680278114481607047AA
:101C5000300000200B4810B5016841F400710160AC
:101C6000016841F480610160016841F480710160A4
:101C7000032000F071F8002000F006F800F024F8CE
:101C8000002010BD003C024070B50D4D04464FF4DD
:101C90007A712878B1FBF0F00A490968B1FBF0F0DD
:101CA00000F00CFB48B9102C07D200222146501E30
:101CB00000F032F800206C6070BD012070BD0000A3
:101CC000300000203C0000200B4882B0016841F445
:101CD00080410160006800F4804000900648001FC9
:101CE000016841F080510160006800F08050009070
:101CF000072002B000F030B844380240002809DB69
:101D000000F01F02012191404009800000F1E02015
:101D1000C0F8001170470000F0B40E4B1B680C4671
:101D2000C3F30223C3F10705042D00D90425191DAF
:101D3000072901D2002300E0DB1E012606FA05F187
:101D4000491E214099409E40761E16403143F0BC0A
:101D500000F0D5BE0CED00E0064900F0070208686F
:101D60004FF6FF03184040EA0220034A1043086080
:101D7000704700000CED00E00000FA052DE9F04787
:101D80000E46050065D0DFF81481D8F80000F7B2E0
:101D900000F00700B04207D288F80070D8F80000C1
:101DA00000F00700B04254D128683D4C810712D59D
:101DB000400703D5206840F4E050206028780007F1
:101DC00003D5206840F4604020602068A96820F0B6
:101DD000F000084320602878C0072DD0304968689B
:101DE0000839012812D0022813D0032811D009681D
:101DF000890700292DDA216821F0030101432160C0
:101E0000FFF71AFF814641F2883A0EE0096889031C
:101E1000EFE709688901ECE7FFF70EFFA0EB090186
:101E2000514502D90320BDE8F0872068696800F0B9
:101E30000C00B0EB810FEFD1D8F80010404601F054
:101E40000701B14207D90770006800F00700B042EF
:101E500001D00120E7E72878400705D52068E96828
:101E600020F4E050084320602878000706D5206859
:101E7000296920F4604040EAC100206000F038F891
:101E80002168084AC1F30311515CC8400649086043
:101E900006480068FFF7F8FE0020C4E7003C024057
:101EA00008380240A63500083C000020340000201D
:101EB0000448054900680968044AC1F38221515C5D
:101EC000C84070473C00002008380240B635000882
:101ED0000448054900680968044AC1F34231515C6D
:101EE000C84070473C00002008380240B635000862
:101EF000154810B5006810F00C02144813D04110BA
:101F0000042A0FD0082A0ED10F4C241F2268236800
:101F100002F03F025B0207D52068C0F38810A0FBE7
:101F2000010106E0084610BD2168C1F38811A1FB3C
:101F300000010023FEF7AAF92168C1F30141491C01
:101F40004900B0FBF1F010BD083802400024F40055
:101F50002DE9F84F04006ED02078DFF84C93C007CD
:101F6000A9F104054AD009F104000168C1F3810117
:101F7000012908D00068C0F3810002280AD1D9F8ED
:101F80000000400206D52868800337D56068002825
:101F9000E1D033E06068B0F5803F10D0B0F5A02FFD
:101FA000286810D020F480302860286820F4802031
:101FB00028606068A8B1FFF73FFE06460DE028687C
:101FC00040F48030F4E740F480202860F7E700BF59
:101FD000FFF732FE801B642873D828688003F7D58A
:101FE0000CE0FFF729FE064605E000BFFFF724FEE0
:101FF000801B6428F0D828688003F7D42078DFF8A5
:10200000AC8280074FF0000A3ED5A748001D01684A
:1020100011F00C0F08D00068C0F3810002280BD12A
:10202000D9F80000400207D42868800716D5E06878
:10203000012800D112E033E1E068B8B10120C8F80E
:102040000000FFF7F9FD064605E000BFFFF7F4FDCD
:10205000801B0228C0D828688007F7D52868216926
:1020600020F0F80040EAC10028600DE0C8F800A0A8
:10207000FFF7E2FD064604E0FFF7DEFD801B0228C5
:102080001FD828688007F7D42078000722D5864F0C
:1020900087486169703771B101210160FFF7CCFD9C
:1020A000064604E0FFF7C8FD801B022809D83868FF
:1020B0008007F7D50EE0C0F800A0FFF7BDFD06468B
:1020C00005E082E0FFF7B8FD801B02287DD8386864
:1020D0008007F7D42078400768D5DFF8CCB1002717
:1020E0000BF13C0BDBF80000C0000BD4DBF8001058
:1020F00041F08051CBF80010DBF80000012700F020
:10210000805000906B4E3068C00510D4306840F4A9
:1021100080703060FFF790FD009005E0FFF78CFDC8
:102120000099401A022850D83068C005F6D55E4E96
:10213000A0686C3601280FD00528306810D020F038
:1021400001003060306820F004003060A068B8B151
:10215000FFF772FD00900FE0306840F00100F4E7F7
:1021600040F004003060F7E7FFF766FD0099411A80
:1021700041F28830814266D830688007F4D50EE09D
:10218000FFF75AFD009007E0FFF756FD0099411A4E
:1021900041F28830814256D830688007F4D42FB19C
:1021A000DBF8001021F08051CBF80010A069C8B313
:1021B0003D49091D0968C1F3810102294AD002285D
:1021C000504607D0C8F8600000E03CE0FFF734FD5F
:1021D00004463BE04746C8F86000FFF72DFD064681
:1021E00005E000BFFFF728FD801B02282BD82868D8
:1021F0008001F7D4D4E907010843A16A2E4A4908AF
:1022000002EB0141626A41EA8211084394F82C1002
:1022100040EA0161C9F8001001203866FFF70CFDA3
:10222000044606E03EE000BFFFF706FD001B022863
:1022300009D828688001F7D534E000BFFFF7FCFC1F
:10224000001B022802D90320BDE8F88F286880010E
:10225000F4D427E00128F7D0D9F80000E26900F4AF
:10226000800191421CD1226A00F03F01914217D1B6
:1022700047F6C071626A0140B1EB821F10D1A26AB9
:102280004FF0FF3300F4403103EB5202B1EB024F49
:1022900006D194F82C1000F07060B0EB016F01D003
:1022A0000120D1E70020CFE7043802400000474278
:1022B000800E4742007000400000FFFF10B5401E36
:1022C000B0F1807F01D3012010BD4FF0E0246061A8
:1022D0000F21601700F013FC0020A061072020618F
:1022E000002010BD70477047F8B5016804460868C3
:1022F000CA684B6910F00F0F4FF0000559D003F07A
:10230000010602F49077374365D0C10705D0D105A7
:1023100003D5216C41F001012164410705D5D9079E
:1023200003D0216C41F002012164810705D5D90752
:1023300003D0216C41F004012164010707D502F0AC
:102340002001314303D0216C41F008012164216C4C
:1023500000293AD0800604D5900602D5204600F028
:10236000ACFA20684069216CC0F38010090700D4E2
:1023700060B3204600F07AFA20684069400621D513
:102380002068143050E8001F21F0400140E800129E
:10239000002AF5D1A06BA8B16C490165A06BFFF7CD
:1023A00006FA002811D0A06B016D01B0BDE8F04025
:1023B000084783060FD593060DD52046BDE8F840A3
:1023C00000F07BBA2046FFF78EFFF8BD2046FFF7EE
:1023D0008AFF2564F8BD266B2023012E79D1C6061D
:1023E00077D5D60675D508684868009048694006D4
:1023F00040D5A16B086840680004000CEAD0A28DAB
:102400008242E7D9E085C869B0F5807F2DD0206889
:102410000C3050E8001F21F4807140E80012002ABF
:10242000F5D12068143050E8001F21F0010140E888
:102430000012002AF5D12068143050E8001F21F066
:10244000400140E80012002AF5D184F83E302563AF
:1024500020680C3050E8001F21F0100140E8001205
:10246000002AF5D1A06BFFF759F9A08DE18D401A34
:1024700081B229E0A08DE18D401A81B2E08D002863
:10248000A8D00029A6D020680C3050E8002F22F4F4
:10249000907240E80026002EF5D12068143050E8F4
:1024A000002F22F0010240E80026002EF5D184F82A
:1024B0003E30256320680C3050E8002F22F01002D7
:1024C00040E80023002BF5D12046FFF70BFFF8BDB5
:1024D000FFE705062BD5150629D594F83D002128E0
:1024E000F5D1A068B0F5805F01D12069B0B1206A54
:1024F000411C2162216800784860E08C401E000485
:10250000000CE084E3D12068C16821F08001C16043
:102510002068C16841F04001C160D8E7206A0088A6
:10252000C0F308004860206A801C2062E5E740068E
:10253000CDD55006CBD5CA68204622F04002CA60ED
:1025400084F83D3000F0B8F8C1E700005D280008CD
:1025500070B5040004D094F83D00002510B106E0E9
:10256000012070BD84F83C50204600F023F8242060
:1025700084F83D002068C16821F40051C160204604
:1025800000F0FCF92068016921F4904101612068A4
:10259000416921F02A0141612068C16841F400517C
:1025A000C1602564202084F83D0084F83E000020AE
:1025B00070BD000070B586B0064614216846FDF770
:1025C000C6FF23493068884240D12248002501686F
:1025D00041F400310160006800F4003005901D48AE
:1025E0001038016841F0010101600068694600F09F
:1025F000010005900C2000900220CDE90105032088
:102600000390072004901448FFF71EFA144C134857
:1026100020604FF00060C4E901054014C4E9035094
:1026200080106561C4E90650256220466562FFF7A7
:10263000A1F908B1FFF770F8B46300221146262013
:10264000A663FFF769FB2620FFF758FB06B070BDB5
:1026500000440040403802400000024088600240D0
:10266000D000002090F83E30202B0ED159B152B14D
:1026700090F83C30012B08D0012380F83C30002337
:10268000036300F001BA0120704702207047000088
:10269000084910B5252201F12500FDF713FF054972
:1026A0002522A1F14400FFF7DDFFBDE8104000F056
:1026B00049BA0000840000207047FEE7FEE7FEE70D
:1026C00070477047FFF7BEBA30B593B03021684607
:1026D000FDF73DFF14210CA8FDF739FF1D4800252B
:1026E000016841F080510160006800F08050119055
:1026F0001948016841F4804101600068022400F437
:102700008040119001200090000401908001CDE9EB
:10271000064004200890A820CDE9090407200B906A
:102720006846FFF715FC08B172B6FEE70CA90F204A
:1027300081E831004FF4A0500F904FF4805010907A
:1027400005210CA8FFF71AFB002801D072B6FEE79E
:1027500013B030BD403802400070004002480168AC
:1027600041F470010160704788ED00E01148016894
:1027700041F002010160104940F247300860091D34
:102780004FF47A7008600C482838016841F0040161
:10279000016009491C390A6842F001020A600168B7
:1027A00041F0010101604FF0E021C004C1F80001D7
:1027B00070470000403802402804004010B5074828
:1027C0000269511C0161816805A0FDF7D7FD084829
:1027D000016821F00101016010BD0000000000202F
:1027E000256C7520202020256C750D0A0000000046
:1027F000100400401048016841F0040101600F49D5
:1028000002200860091D4AF2104008600B48283871
:10281000016841F00401016008491C390A6842F06E
:1028200001020A60016841F0010101604FF0E021FE
:10283000C004C1F800017047403802402808004039
:1028400004480168491C01600348016821F0010146
:1028500001607047080000201008004010B5806B30
:102860000021C185C184FFF73EFD10BD01680C3118
:1028700051E8002F22F4907241E80023002BF5D19B
:102880000168143151E8002F22F0010241E80023D1
:10289000002BF5D1016B012909D101680C3151E8F8
:1028A000002F22F0100241E80023002BF5D1202157
:1028B00080F83E1000210163704708B590F83E1083
:1028C000222901D0022008BD82684FF480539A4229
:1028D00001D1016921B1816A9A421BD04AB10AE053
:1028E0000268816A5268C2F308020A80816A891C00
:1028F00008E0026972B10268526802F07F020A7051
:10290000816A491C8162C18D491E0904090CC18577
:1029100003D019E002685268F1E70168CA6822F042
:102920002002CA600168CA6822F48072CA60016825
:102930004A6922F001024A61202180F83E10016BB1
:10294000012903D0FFF7A4FE002008BD0021016388
:1029500001680C3151E8002F22F0100241E80023F9
:10296000002BF5D101680A68D20602D50A684968C9
:102970000091818DFFF7B6FCE6E7000070B50446D4
:1029800000680169E26821F4405111430161216945
:10299000A068E26908436169114308432168CA6875
:1029A00049F20C639A430243CA6020684169A269F4
:1029B00021F440711143416131492068884202D0BD
:1029C0003049884202D1FFF783FA01E0FFF770FA3D
:1029D000E2690023192164253226B2F5004F6268AE
:1029E00028D0A0FB0101930F9200FDF74FFC014698
:1029F000B0FBF5F06FF01802504301EB800006EBDE
:102A00000010B0FBF5F000F0F002B1FBF5F002EBC6
:102A10000012B1FBF5F06FF01803584301EB800092
:102A200006EB0010B0FBF5F000F00F002168104439
:102A3000886070BDA0FB010192185B41FDF726FC88
:102A40000146B0FBF5F00201B1FBF5F06FF01803A1
:102A5000584301EB800006EBC000B0FBF5F000F03E
:102A6000F80002EB4002B1FBF5F0584301EB8000A7
:102A700006EBC000B0FBF5F000F00700D6E7000061
:102A8000001001400014014081628285C28500214E
:102A90000164222280F83E2080F83C100168CA6858
:102AA00042F48072CA6001684A6942F001024A61D8
:102AB0000068C16841F02001C1600020704700003B
:102AC0000148FFF711BC000040000020FEE703B4FE
:102AD00001984100009850EAC12018BF04204A0D17
:102AE00018BF40F0010040F2FF72B2EB515F08BF27
:102AF00040F00200012808BF052002B07047090716
:102B0000090E002804DB00F1E02080F80014704773
:102B100000F00F0000F1E02080F8141D7047000065
:102B200004480068800701D5012070474FF0FF304E
:102B300070470000100C024010B5044600F006F982
:102B4000204610BD2DE9F04F2DED048B4FF0000A0B
:102B500085B0DFF82C8101205246564698F8014096
:102B600098F8025008F1050B9FED468B9FED479BAF
:102B7000DFF82091D8F8147056E0202953D05B2953
:102B800051D02C290CD02D293FD0522940D04C298E
:102B90003ED04F293CD047293CD042293AD03BE097
:102BA000BAF1070F38DC0AF101014FFA81FABAF1E4
:102BB000080F27D2DFE80AF02604070B0F1422249F
:102BC0008BF800201EE050438BF801001AE02C48DF
:102BD000C01C027016E02A495043C91C487011E01D
:102BE000504300F0D5FA53EC182B00F0E9FA53ECFF
:102BF000192B00F075F9C8E9060103E0074601E06A
:102C000088F80000002201200DE04FF0FF300AE0BC
:102C10000C4608E00D4606E002EB82026FF02F033F
:102C200003EB42020A44761C19F806105D29A4D170
:102C3000C8F8147088F8014088F8025098ED060B27
:102C400053EC192B51EC100B00F0BAFA53EC182B83
:102C500000F046F9CDE902010948C01C90F90110C5
:102C6000009190F900309BF901209BF900100A486F
:102C7000FDF784FB05B0BDEC048BBDE8F08F0000D0
:102C800000000020A7E8482EFF21094000000000B6
:102C900000806640A90000205436000808B5FEF701
:102CA000D9FFFFF711FD25480024016841F080019C
:102CB0000160016801F080010091016841F00101AB
:102CC0000160016801F001010091016841F4001107
:102CD00001600068002200F40010009011461020EE
:102CE000FFF71AF81020FFF709F816481449016099
:102CF0004FF4E131C0E901140C21C460C0E9044182
:102D00008461C461FFF724FC08B172B6FEE7FEF7E8
:102D1000CBFCFFF76FFDFFF729FD0A49252244315F
:102D20000848FFF79FFC08484FF4FA618268C368BF
:102D3000D21A8A42FAD98268C260F7E73038024074
:102D400000440040400000200000002004490A68C0
:102D50001206FCD50249C0B2091D08607047000088
:102D60000044004010B500290AD00878002807D098
:102D700005487844FEF70CF8002801D0002010BD6B
:102D80000248784410BD0000460900003E090000DA
:102D900010B591EA030F48BF83F0004300F116839A
:102DA000841A71EB030C05D2121943EB0C03001BC0
:102DB00061EB0C01DFF824E14FEA1154A4EB135C42
:102DC0001EEA430F18BF9EEA445F73D023EA0E0346
:102DD000DCF1200E21EA045143F4801332D322FAAD
:102DE0000CFE10EB0E0023FA0CFE41EB0E01CCF1B1
:102DF000200E03FA0EFE10EB0E0051F10001B1F5AA
:102E0000801FCCF1200E32D201EB045112FA0EF2E7
:102E1000BDE8104058BF7047401C38BF5FEA42020F
:102E200018BF7047002814BF20F0010041F10001D5
:102E30004FEA410313F5001F38BF7047A1F1C041AD
:102E400000F0B6BA012A43EB0302ACF1200CDCF12E
:102E50001F0E32BF4FF0000E23FA0CF310EB0300ED
:102E600041EB0451B4EB115FD0D0A1EB045101F55B
:102E7000801149085FEA300001EB04510ED350F194
:102E8000000038BF12FA0EFE08D1BDE81040C9E7B5
:102E9000401C38BF5FEA4202CAD1C3E7BDE8104018
:102EA0004FEA410313F5001F38BF7047A1F1C0413D
:102EB00000F07EBA9EEA445F08D011EA5E0FBDE8DA
:102EC000104004BF01F0004100207047BDE81040F1
:102ED00070B500F01FFA00BF64FBBE3E0000E0FFCB
:102EE0002DE9C04130B4DFF8A0C23CEA111418BF8C
:102EF0003CEA131400F0EC8081EA03051CEA11148B
:102F000044EAD57418BF1CEA131500F0C780A4EB7F
:102F100005044FF0004545EAC12145EAC32341EAD3
:102F2000505143EA525304F17F74994204F500343E
:102F30004FEAC0204FEAC22208BF904200F09C80B6
:102F40004FEA13650FF24016765D4FEA134506FB14
:102F500005F7C7F1807706FB07F74FEAD737A7FBDE
:102F600003687642C8F58038A7FB06CE38BFA8F1C3
:102F7000010807FB08E64FF0000EA6FB028CE6FBFB
:102F800003CEDCF1000CCEF1004E38BFAEF1010EE5
:102F9000A6FB0C584FF000074FF00005E6FB0E872C
:102FA000A1FB08C6A0FB07CE16EB0E0645F10005F7
:102FB000E1FB076515F1E04E7EBFA4F580345FEAC2
:102FC00046066D4116F1800745F100054FEA1727C7
:102FD0004FEA066647EA0567A6F1DE46B6F1805F6E
:102FE0004FEA15251FD9384624F0010C05EBC471B2
:102FF000BCF1FE6F01EB0C1102D8F0BCBDE8008102
:1030000024425CBF01F5801E9EEAC47F02D4F0BC5E
:10301000BDE80081244238D4F0BCA1F1C041BDE834
:10302000004100F0C5B94FEAD22242EA43524FEACA
:10303000D323A7FB02864FEAD02040EA415007FB8A
:1030400003661EEA0E0F4FEAD12105FB026658BF48
:10305000A6EB0056B6EB00564FEA520E4EEAC37E80
:1030600018EB0E0E56EB530EBDD518EB02085E4161
:103070007F1C55F10005B6E74FF480154FF00007AF
:103080004FF000064FF00008ADE7F0BC4FF0000035
:1030900001F1C04101F00041BDE8008111EA0C1FBF
:1030A0000CEA131500D00CE013EA0C1F00F0258089
:1030B0004FF00000F0BC81EA030101F00041BDE8DF
:1030C0000081F0BCBDE8004181EA030100F070B965
:1030D000F0BCBDE8004170B500F01CF9097EFC3E73
:1030E00000F007B881EA03014FF0000001F0004151
:1030F000704781EA030100F05BB9F0BCBDE8004114
:103100004FF0000021497047FFFDFBF9F7F5F4F29D
:10311000F0EEEDEBE9E8E6E4E3E1E0DEDDDBDAD872
:10312000D7D5D4D3D1D0CFCDCCCBCAC8C7C6C5C4D0
:10313000C2C1C0BFBEBDBCBBBAB9B8B7B6B5B4B3E7
:10314000B2B1B0AFAEADACABAAA9A8A8A7A6A5A4D2
:10315000A3A3A2A1A09F9F9E9D9C9C9B9A99999896
:103160009797969595949393929191908F8F8E8E39
:103170008D8C8C8B8B8A89898888878786858584C6
:1031800084838382828181800000FF070000F87FB2
:1031900010F0004248BF4042B0FA80F310FA03F149
:1031A0000AD0C3F11D0303F580634FEA415002EBDF
:1031B000035202EBD12170474FF00000704700002E
:1031C000DFF848C170B51CEA111E1EBF1CEA1315BA
:1031D0009EEA0C0F95EA0C0F00F06F8081EA030461
:1031E00023EA4C134EEAD47E21EA4C1141F48011BB
:1031F00043F48013AE44A1FB024CA0FB0365AEF187
:103200007F7E361955EB0C05A1FB034C4CF10003F6
:10321000A0FB021C16EB0C06654153F100030942AA
:1032200018BF46F0010613F4007F0BD14FEA0331BB
:103230004FEA0530340341EA155140EA16506FF069
:1032400003020AE04FEAC3214FEAC520F40241EA33
:10325000555140EA56506FF0020202EB2E4201EB4C
:10326000025585EACE710AD05FEA440C18BF24F0FB
:10327000004450F1000041F1000120EAD47040F216
:10328000FE7C624500D270BDA84214BF4FF080445E
:103290004FF04044002E08BF0024BEF1806FA8BF4D
:1032A000A1F1C041BDE8704080F282804FF0000083
:1032B00001F1C04101F0004170479EEA0C0F0CEA99
:1032C000131518BF95EA0C0F06D04FF0000081EAE5
:1032D000030E0EF0004170BD00F01CF88900013EA5
:1032E00000F007B800F009B84FEA430C5FEA5C5CF5
:1032F00008D081EA030100F05BB84FEA410C5FEAB5
:103300005C5CF6D14FF00000014970470000FF07F8
:103310000000F87F0EF1020E2EF0030E5EF8046B33
:10332000364205D4012A43EB030515F5001F12D8D8
:10333000012841EB010C1CF5001F0CD80ED14FEAFF
:10334000D17C15F5001F0CEB4C0C0CF1020C08BFE6
:103350004CEBD37C04E04FF0080C01E04FEAD37C47
:103360000CEB4C0526FA05F606F00706B6F1040C40
:1033700006D20EEB860CBDE870404CF0010C6047A5
:10338000DFE80CF0090B02024FF000414FF00000A3
:10339000A1F5002170BD19461046012851EB01042A
:1033A00018BFD4F5001484BF002001F0004170BDA7
:1033B0000808A0F500114FEA3101704710B591EAF5
:1033C000030F48BF83F000433FF5EAAC841A71EB6A
:1033D000030C07D212198CF0004C43EB0C03001BBA
:1033E00061EB0C01DFF8A4E14FEA1154A4EB135C8C
:1033F0001EEA430F18BF9EEA445F00F0B08023EA44
:103400006E03524221EA0451C3EB6E0338BF5B1EC8
:10341000DCF1200E25D322FA0CFE10EB0E0043FA4D
:103420000CFE41EB0E01CCF1200E03FA0EFE10EB68
:103430000E0051F10001CCF1200E29D412FA0EF247
:1034400001EB0451BDE8104058BF7047401C1CBF41
:10345000B2F1004F704700280CBF491C20F001005A
:10346000704712EB020E43EB030218BF4FF0010E40
:103470004EEA4202ACF1200CDCF11E0E54D943FAA4
:103480000CFE10EB0E0051F1FF31CCF11E0ED5D524
:103490000EF1010E12FA0EFE404141EB010101EB6B
:1034A000445C5FEA5C5C10D910EBDE7001EB045108
:1034B00038BFBEF1004FBDE8104018BF704700286C
:1034C0000CBF491C20F00100704730D24FEAD42CC9
:1034D00011F5001124F400641BD0B1FA81F20B3A0B
:1034E000A41AA41ED2F12003914030FA03F3194329
:1034F000904001EBCC71002C01EB0451BDE8104071
:10350000A8BF704701F1C0414FF0000001F0004139
:103510007047B0FA80F310FA03F100D110BDE41A3D
:10352000173C4805C90AE4E701EB045110BD4910F6
:1035300001EB0451BDE810404FEA300002E04FF0CB
:10354000000170474A0008BF0042F8D0B2F5001FE2
:1035500028BF704701F000414FF0000070479EEA1D
:10356000445F07D011EA5E0FBDE8104004BF0021A0
:1035700000207047BDE8104070B5FFF7CBFE00BFDC
:1035800040DFF63E83F00041104670470000E0FF48
:103590004FF04070E1EE100A7047FDF734B90006B5
:1035A00010160006101600000000000000000102C6
:1035B00003040607080900000000010203040000DC
:1035C00002400000000000A00000000005400000D4
:1035D000000000C8000000000C4000000000409CFB
:1035E00000000000194000000020BCBE00000000E8
:1035F00034400000BFC91B8E00000004B54000002D
:10360000504BCFD06607E2CF010000006C410000B4
:103610003E8251AADFEEA73401000000D94200002B
:10362000DCB5A0E23A301F97FFFFFFFFB445000072
:10363000FD25A0C8E9A3C14FFFFFFFFFFF3F00002A
:103640000000008000000000FF3F0000000000803C
:10365000000000006C5F64633A202564207C206CCD
:103660005F6469723A202564207C20725F64633A4B
:1036700020256420207C20725F6469723A202564D2
:10368000207C20737465657220616E6E676C653A8C
:103690002025660D0A000000D43600080000002036
:1036A00040000000C401000814370008400000205A
:1036B00050070000E00100081C000000430000006B
:1036C000F8FFFFFF0C0000000E0000000F000000DC
:1036D0002E000000004F420000000000000000002B
:1036E00000000000000000000000000000000000DA
:1036F00000000000000000000000000000000000CA
:1037000000000000010000001000000000000000A8
:043710000024F4009D
:040000050800018965
:00000001FF
